:020000040800F2
:1000000018300124750300080B2F0008F9090008B7
:10001000092F00080B0A00089D36000800000000A8
:10002000000000000000000000000000B102000815
:10003000890A0008000000000D03000819320008BA
:100040008F0300088F0300088F0300088F03000848
:100050008F0300088F0300088F0300088F03000838
:100060008F0300088F0300088F0300088F03000828
:100070008F0300088F0300088F0300088F03000818
:100080008F0300088F0300088F0300088F03000808
:100090008F0300088F0300088F0300088F030008F8
:1000A0008F0300088F0300088F0300088F030008E8
:1000B000793300088F0300088F0300088F030008BE
:1000C0008F0300088F0300088F0300088F030008C8
:1000D0008F030008413500088F0300084D350008E4
:1000E0008F0300088F030008000000008F03000842
:1000F0008F0300088F0300088F0300088F03000898
:100100008F0300088F0300088F0300088F03000887
:100110008F0300088F0300088F0300080D340008C8
:100120008F0300088F0300088F0300088F03000867
:100130008F0300088D0A00088F0300088F03000852
:1001400000000000000000000000000000000000AF
:100150008F0300088F0300088F0300088F03000837
:100160008F0300088F0300088F0300088F03000827
:100170008F0300088F0300088F0300088F03000817
:100180008F0300088F0300088F0300088F03000807
:100190008F0300088F0300088F0300088F030008F7
:1001A0008F0300088F0300088F0300088F030008E7
:1001B0008F0300088F0300088F0300088F030008D7
:1001C0008F0300088F0300088F0300088F030008C7
:1001D0008F0300088F0300088F0300088F030008B7
:1001E0008F0300088F0300088F0300088F030008A7
:1001F0008F0300088F0300088F0300088F03000897
:100200008F0300088F0300088F0300088F03000886
:100210008F0300088F0300088F0300088F03000876
:100220008F0300088F0300088F0300080000000000
:100230008F0300088F030008000000008F030008F0
:100240008F0300088F0300088F0300088F03000846
:100250008F0300088F0300088F0300088F03000836
:100260008F0300088F0300088F0300088F03000826
:100270008F0300088F0300088F03000800000000B0
:100280008F030008000000008F030008000000003A
:10029000000000008F030008DFF810D000F000FB22
:1002A000004800475B720008AFF30080183001245B
:1002B0002D4B19680868B0E8F04F80F30988BFF348
:1002C0006F8F4FF0000080F311887047000000002E
:1002D00008480068006880F308884FF0000080F349
:1002E000148862B661B6BFF34F8FBFF36F8F00DF24
:1002F00000BF00BF08ED00E0DFF80C00016841F42A
:1003000070010160704700BF88ED00E0EFF30980E5
:10031000BFF36F8F144B1A681EF0100F08BF20ED4B
:10032000108A20E9F04F106009B44FF0400072B617
:1003300080F31188BFF34F8FBFF36F8F62B610F059
:1003400071FD4FF0000080F3118809BC196808683E
:10035000B0E8F04F1EF0100F08BFB0EC108A80F329
:100360000988BFF36F8F704744000024EFF30580C6
:10037000704700000648804706480047FEE7FEE752
:10038000FEE7FEE7FEE7FEE7FEE7FEE7FEE7FEE745
:10039000F5320008990200082DE9F05F05460020BB
:1003A00092469B4688460646814640241BE02846E6
:1003B00041464746224600F0ABF853465A46C01A1B
:1003C000914110D311461846224600F092F82D1A9A
:1003D00067EB01084F4622460120002100F089F812
:1003E00017EB00094E41201EA4F10104DFDC484652
:1003F00031462A464346BDE8F09F0000004870475A
:10040000901F010810B5431A934209D28318881827
:1004100003E010F8011D03F8011D521EF9D210BDB2
:1004200040EA01039B0703D009E008C9121F08C076
:10043000042AFAD203E011F8013B00F8013B521EF6
:10044000F9D210BDD2B201E000F8012B491EFBD257
:1004500070470022F6E710B513460A4604461946CF
:10046000FFF7F0FF204610BD30B505462A460B4683
:1004700012F8010B13F8014B08B1A042F8D01CB1DF
:10048000002802D06D1CF1E7284630BD421C10F850
:10049000011B0029FBD1801A704730B504460020AB
:1004A000034600E05B1C934203D2E05CCD5C401B42
:1004B000F8D030BD034611F8012B00F8012B002ABB
:1004C000F9D11846704730B50B460146002020226E
:1004D000012409E021FA02F59D4205D303FA02F551
:1004E000491B04FA02F52844151EA2F10102F1DCB1
:1004F00030BD202A04DB203A00FA02F100207047C8
:100500009140C2F1200320FA03F319439040704751
:10051000202A04DB203A21FA02F00021704721FA58
:1005200002F3D040C2F120029140084319467047BF
:100530002DE9FE4F804681EA0300C00F0C46009073
:1005400021F0004123F00045B8EB0200A94105D29B
:100550004046214690461C460B46024623F000408A
:10056000104347D0270DC7F30A00C3F30A51029086
:10057000401A019040286BDAC3F3130040F4801B4B
:100580000098924620B10023D2EB030A63EB0B0BD9
:1005900001985946C0F140025046FFF7AAFF0646AF
:1005A0000D4650465946019A00F08CF910EB0800B0
:1005B0006141002487EA115284EAE7731A4340D06C
:1005C000009A62B3019A012A4FEA075215DC001B18
:1005D00061EB02014FF0004202EA0752CDE900420E
:1005E000001C41F5801132462B4600F08CF903B017
:1005F000BDE8F08F40462146F9E7001B61EB0201A0
:10060000001C41F5801300185B412018A2F500176B
:1006100047EB030140EAD570B6196D4111E06D0852
:100620004FEA360645EAC0754FEA0752001B61EBF8
:100630000201001C41F5801149084FEA3000001901
:10064000514132462B4603B0BDE8F04F00F04CB9A3
:100650000098012240000023D0EB020263EBE0731C
:10066000009821464FEAE074B8EB000061EB04010A
:10067000E9E783F000435BE781F0004158E72DE9AB
:10068000FE4F81EA030404F0004421F0004100948D
:100690004FF0000B23F0004350EA01045ED052EA11
:1006A00003045BD0C3F30A54C1F30A552C44A4F2EB
:1006B000F3340194A0FB0254C1F3130141F48011FF
:1006C000C3F3130343F4801301FB024400FB034E06
:1006D000840A970A44EA815447EA8357A4FB0768CF
:1006E00002958D0A05FB07854FEA932C04FB0C54F9
:1006F0002705029D4FEA065847EA1637B5EB08056D
:100700006EEB070C870E920E47EA811742EA8312BE
:10071000A7FB0201B6EB0B0164EB00042B0D43EACF
:100720000C335E1844EB1C50DA465146E7FB0201DD
:10073000C5F313044FEA0B3343EA14534FEA043270
:10074000019C43EA0603A4F10C040294009CCDE949
:1007500000B400F0D8F803B0BDE8F08F00200146E7
:10076000F9E72DE9F04D81EA030404F0004B21F094
:10077000004514464FF0000A23F0004150EA0502FC
:1007800020D054EA01021DD0C5F30A570246C5F332
:100790001303C1F31300C1F30A5640F4801543F468
:1007A0008013A7EB0608101BD64608F2FD3873EB42
:1007B000050002D308F1010801E092185B41B8F18D
:1007C000000F03DA00200146BDE8F08D00204FF451
:1007D0008011064684460EE0171B73EB050705D310
:1007E000121B63EB050306434CEA010C49084FEA70
:1007F000300092185B4150EA0107EDD152EA030044
:1008000012D082EA040083EA0501084305D0101BD8
:10081000AB4106D20122002306E000224FF0004344
:1008200002E06FF0010253101AEB06004CEB085186
:1008300010EB0A0041EB0B01BDE8F04D00F054B89D
:10084000C1F30A52C1F3130140F2FF3341F48011A6
:100850009A4202DA00200146704740F233439A423E
:10086000A2F2334202DC5242FFF752BEFFF741BE12
:1008700030B5041E71F1000404DB4FF00044404227
:1008800064EB0101141E73F1000405DB1C464FF0FC
:100890000043524263EB0403994208BF904230BDCB
:1008A000064C074D06E0E06840F0010394E80700BD
:1008B00098471034AC42F6D3FFF7F2FC80210108D0
:1008C000D0210108202A06DBCB17203A41FA02F09A
:1008D00043EAE07306E041FA02F3D040C2F120029D
:1008E000914008431946704710B5141E73F1000477
:1008F00008DA401C41F1000192185B411A4301D112
:1009000020F0010010BD2DE9F04D92469B4611B13B
:10091000B1FA81F202E0B0FA80F220329046FFF79D
:10092000E8FD04460F4640EA0A0041EA0B0153463F
:100930005A46084313D0114653EA010019D0C8F1B2
:1009400040025046FFF7E4FD05460E465046594624
:100950004246FFF7CEFD084305D0012004E02046C3
:100960003946BDE8F08D0020054346EAE0762C4389
:1009700037430A986305E40AA0EB08000022FD0A49
:1009800044EA47540A3002D500200146E9E7010550
:1009900010196941DDE9084500196941BDE8F04DCC
:1009A000A2E770B58C1810F8015B15F0070301D1B0
:1009B00010F8013B2A1106D110F8012B03E010F8C2
:1009C000016B01F8016B5B1EF9D12B0705D40023E5
:1009D000521E0DD401F8013BFAE710F8013BCB1A87
:1009E000921C03E013F8015B01F8015B521EF9D57C
:1009F000A142D8D3002070BD1EF0040F0CBFEFF34E
:100A00000880EFF3098002F0ABB8FEE7F0B5BFF362
:100A10004F8FBFF36F8F1A4900200860BFF34F8FCD
:100A2000BFF36F8F174C216841F400312160BFF391
:100A30004F8FBFF36F8F134970310860BFF34F8F33
:100A4000081F006843F6FF750D4E1036C0F34E3197
:100A5000C0F3C90305EA4112184642EA80773760BD
:100A6000401EFAD2491EF5D2BFF34F8F206840F4E2
:100A700080302060BFF34F8FBFF36F8FF0BD000059
:100A800050EF00E014ED00E070470000014800F076
:100A9000EABC0000F025012470B5A2B0064600248F
:100AA000694601258DF80450680306908DF80F50B3
:100AB0004FF4C3608DF80E500D9020208DF81D402E
:100AC0008DF80C4009948DF81F4012948DF8325027
:100AD0008DF828408DF8605017904FF040508DF8F9
:100AE00038400F9402948DF861408DF81C401494A6
:100AF0008DF862400B948DF81E500090A8038DF87D
:100B000011508DF840408DF83140059002208DF84D
:100B100012408DF85640169030468DF820508DF8D2
:100B200054408DF830408DF810508DF80D408DF800
:100B3000554011948DF84C5000F0F6F91B9569055D
:100B40008DF871404FF406708DF8685019948DF847
:100B500080408DF870401F918DF878401D9119A943
:100B60008DF881402190304600F08EF922B070BDA2
:100B70000020704701F0E6B9024810B500F06AFFA6
:100B8000002010BDF025012413460A460146044802
:100B900010B500F00CFF002801D04FF0FF3010BD61
:100BA000F025012413460A460146044810B501F019
:100BB00091F8002801D04FF0FF3010BDF02501243E
:100BC0002DE9F047846A00F1180692468B680027E9
:100BD000254656F82420D2F80CC0BCF1000F63DB88
:100BE00091F800805FEA487837D5D1F824806FF318
:100BF0000F0C4CEA080C4CF4803CC2F80CC0D0F846
:100C000000C0DCF8608048F48018CCF8608091F86F
:100C100000C05FEA0C7C20D5B1F82CC0A2F80AC055
:100C2000D2F80CC04CF4003CC2F80CC0D1F83080B3
:100C30002CF4402C4CEA080CC2F80CC0D0F800C0D0
:100C4000DCF8648048F48018CCF864800068D0F840
:100C500050C04CF0806CC0F850C00878C0060BD56E
:100C60009068D1F818C06FF30D0040EA0C00906056
:100C7000D06840F08060D060087810F0140F14D075
:100C8000D068641C042C40F04040D06000D3241F86
:100C9000012756F82420D068002806DA56F82500E7
:100CA000C16821F00041C1608DE018687F1C1060B0
:100CB0004FF000099068D3F804C06FF30D0040EACC
:100CC0000C009060D3F80880DFF8B8C1B8F1000FCD
:100CD0000BD04346D8F80080C2F8048000EA0C002C
:100CE000B3F8048040EA084003E000EA0C00C2F8D0
:100CF000049090600878C006D0680FD5B1F82080C5
:100D000020F4F00040EAC840D060D1F81C806FF3B6
:100D1000110040EA080040F480201CE0D1F8048073
:100D20006FF30E0040EA0800D06091F800805FEA9F
:100D3000C87806D0D1F8148020F4403040EA08008A
:100D4000D0600878800607D5D068D1F8108020F0F0
:100D5000406040EA0800D0600878400707D59068F6
:100D6000D1F8288020F4404040EA08009060D06824
:100D700020F0804040F02040D06091F800805FEA91
:100D8000887869D5D1F80C8020F0607040EA0800BE
:100D900061E0641C042C00D3241F56F82420D06882
:100DA000002813DA56F8251000200AE0CA686D1CE6
:100DB000042D22F00042CA6000D32D1F401C56F8BB
:100DC0002510B842F2D30220BDE8F08718687F1CD6
:100DD00010609068D3F804806FF30D0040EA0800BB
:100DE0009060D3F80880B8F1000F0BD04346D8F8D4
:100DF0000080C2F8048000EA0C00B3F8048040EAE6
:100E0000084003E000EA0C00C2F804909060087803
:100E1000C006D06808D5D1F81C806FF3110040EAF5
:100E2000080040F4802011E0D1F804806FF30E0038
:100E300040EA0800D06091F800805FEAC87815D0D9
:100E4000D1F8148020F4403040EA0800D06020F04F
:100E5000804040F00040D0609B68002B99D19068A2
:100E6000BAF1000F04D040F0004003E0D068EEE794
:100E700020F000409060D06840F08050D0600020AA
:100E80003461A1E7FFFF00C030B5026802F580526F
:100E9000136847F60204A3430C68234313600A79DE
:100EA0000B7B120342EAC3338A681343026802F5DC
:100EB000805254684DF20105AC431C4354604B7B97
:100EC0000A6A42EA0343026802F58052D2F80041FE
:100ED000124D2C401C43C2F800410A7D4B7F120189
:100EE00042EA03330A691343026802F58052D2F8DA
:100EF00004410B4D2C401C43C2F8044100688A6930
:100F0000097F00F5805042EAC171D0F80821054BF5
:100F10001A400A43C0F8082130BD000000C0FEFF9F
:100F2000EFEFC0FFFFFFC07F30B50B688A680C7B16
:100F30001A430B79DB0643EAC4531A434B7B42EA5C
:100F400083528B7B42EA4352CB7B42EA03530A7CB7
:100F5000002A7CD0002243EAC2434A7C002A78D08F
:100F6000002243EA42428B7C42EA03424B691A4325
:100F70008B691A430B7F42EA03324B7F42EAC32359
:100F80008A7F002A66D0002243EA8222CB7F42EA8F
:100F9000432391F82020002A7ED0002243EA022237
:100FA0004B6A1A4391F8283042EA0313CA6A134382
:100FB00002681468434D2C401C43146091F83C2097
:100FC00091F83830520642EA036291F8303042EA32
:100FD000834291F8313042EA434391F83220BAB368
:100FE000002243EA02434A6B134302685468364DB9
:100FF0002C401C43546091F840304A6C42EA032371
:101000000268D46840F20F15AC431C43D46091F8D9
:1010100054300A6D42EA430391F84C20EAB30022AF
:10102000B1F84840D20142EA044213430268146F07
:101030004FF60D752C401C43146791F8553091F80C
:10104000562042EA43030268D2F8904003E02BE0C6
:1010500032E02BE02CE024F003041C43C2F8904063
:101060000268D2F8003D8C6D23F072032343C2F86E
:10107000003D91F86020CB6D12B30022006843EA76
:10108000821291F8613091F862101B0143EAC101AC
:101090000A43D0F8301D01E00CE00FE021F07B01A5
:1010A0001143C0F8301D30BD012254E7012258E73A
:1010B000012269E7012271E7012292E70122AFE7ED
:1010C0000122DBE7838004000080F8C008B54FF4FC
:1010D0007A74DFF8348000204FF0FF39660025462F
:1010E0004FF480670090002023466A46494610F07E
:1010F00001FC012803D1009CB44200D32C463946A0
:10110000404600F015FFEEE70000025870B5026C93
:1011100000F12C03456C53F8221025B1DC6904B1B1
:101120006D1C002423E0012070BD0E690E604FF09D
:101130008076CE604E692EB14E698E60CE6846F0E4
:101140000076CE60CE6846F00046CE601E6A1EB1C4
:10115000CE6846F08046CE609E69761EA64205D9CE
:10116000521C042A00D3121F53F82210641CAC42F4
:10117000DBD3006800F58050C0F82811002098618A
:1011800070BD704710B500EB8104E46A0AB1042910
:1011900003D301214165084610BD22602261E06849
:1011A00040F08070E0604BB1A36040F0007063617C
:1011B000E06040F00040E060002010BDE068F8E72B
:1011C000704700297DD00268126802F00C02CA62E2
:1011D00002681268C2F3001281F8282002681268BF
:1011E00002F060024A620268126842F30022521C56
:1011F00081F8202002681268C2F34022CA77026890
:10120000126842F38022521C8A7702681268C2F385
:10121000C0224A7702681268C2F300320A77026875
:10122000126802F400528A610268126802F4804275
:101230004A6102681268C2F300428A740268126846
:1012400042F34042521C4A740268126842F3C042A0
:10125000521C0A7402681268C2F30052CA73026810
:101260001268C2F340528A7302681268C2F3805255
:101270004A7302681268C2F3C0520A7302681268A5
:1012800002F0E0628A6002681268C2F3C0620A710A
:101290000268126802F0E0420A6002685268C2F313
:1012A0000D024A630268526842F30042521C81F800
:1012B000322002685268C2F3404281F8312002684D
:1012C00000E062E05268C2F3804281F83020026898
:1012D0005268C2F3006281F8382002685268C2F393
:1012E0004462CA630268D268C2F3002281F84020D7
:1012F0000268D26802F00F024A640268126FC2F3F9
:10130000400281F854200268126F42F3C012521C4E
:1013100081F84C200268126F02F070020A650268C0
:10132000126F120C8A640268D2F8902002F0010257
:1013300081F856200268D2F89020C2F3400281F86A
:1013400055200268D2F8002D02F072028A65026808
:10135000D2F8302D02F02302CA650268D2F8302D8F
:10136000C2F3C00281F862200268D2F8302DC2F3C5
:10137000001281F861200068D0F8300D40F3801031
:10138000401C81F8600000207047012070472DE963
:10139000F043066C00F12C080746406C0C464FF0F9
:1013A000000958F8265018B9384600F00BFAE8B38F
:1013B000002017E0696939B3C4B3296921607969EC
:1013C0006160A46894B36969216079696160E968C2
:1013D000761C042EC1F30E0900D3361FA468401CEE
:1013E00058F82650D8F81810491E8142E2D8ECB1BE
:1013F000E868C0F30E01A1EB09007969814205D3C9
:101400002969C4E900100EE02969DDE7696969B15D
:101410002969216079696160A16839B16A690A60E6
:101420007A69801A48600020BDE8F083FFE7012058
:10143000FAE770B500F12C040D46D4E9056111B945
:1014400000F0C0F968B1A069761E3044042800D3CA
:10145000001F54F82000C068C0F30E002860002070
:1014600070BD012070BD70B50446006800F5805065
:10147000D0F86011490612D5D0F8340140060ED5D7
:10148000204600F09FF9012802D1204600F0C0FA62
:10149000206848F2400100F58050C0F860112068D3
:1014A00000F58050D0F86011C9070DD0D0F8340194
:1014B000C00709D0204600F00AFC206848F201016C
:1014C00000F58050C0F86011206800F58050D0F819
:1014D00060114FF0E00549042CD5D0F834114904CF
:1014E00028D5616D41F008016165D0F86011C9042B
:1014F00012D5D0F8602141F2021191430AD00021A7
:10150000A165D0F8341121F44041C0F8341184F8B9
:1015100051500CE00121F3E7D0F860114FF4CD43B6
:1015200033EA01020FD00021A165C0F860312046E6
:10153000FFF727FE2068D0F8B0100026C1F3413134
:10154000032902D00AE00121EEE7D0F8B800E065F7
:1015500084F85150204600F099F9E6652068D0F8EB
:10156000B010C90608D5D0F8C00000F060002066B1
:10157000204600F01BFA26662068D0F8B0108906D5
:1015800008D5D0F8C00000F00F0060662046FFF7D5
:1015900017FE66664FF0B040D0F8A810490206D595
:1015A0004FF48001C0F8A810204600F091FB70BDF8
:1015B000F8B5040003D094F8510010B104E0012004
:1015C000F8BD204600F064F9232084F851007348E8
:1015D000016841F002010160006800F00200009023
:1015E000207A08B14FF4000001F0C0F9206800F53E
:1015F0008050016841F00101016000F0A3FCE02689
:1016000005464FF4FA7706E000F09CFC401BB84218
:1016100001D9042049E0206800F580500068C00727
:10162000F2D12068D0F8000220F4706500F0A6FE28
:101630005B495C4A0144914202D245F4007516E0D0
:1016400059495A4A0144914202D245F440750EE08C
:101650005749584A0144914209D3574908445749C8
:10166000884202D245F4807501E045F48065206827
:10167000C0F8005200F082FE5149B0FBF1F0216841
:10168000401EC1F8DC002046FFF706FA206800F58E
:101690008050D0F8001121F4E01141F40021C0F88D
:1016A00000116169880704D00120606584F85160E9
:1016B00085E7206800F58050D0F8082147F6FE73D2
:1016C0009A4342EA4101C0F8081100210A46E06845
:1016D00001EB410300EBC30004EB8103491C0260F2
:1016E000042942608260C2609861F0D3A262032341
:1016F000206800F58050C0F82C312068E16800F5C2
:101700008050C0F814112068E16800F58050C0F8DE
:1017100020110021206901EB410500EBC50004EB1D
:101720008105491C0260042942608260C260026136
:101730004261E862EED3E26322646264E264A2641E
:10174000206800F58050C0F830312068216900F52C
:101750008050C0F81C112168206901F58051483083
:10176000C1F82801606821688088C1F800036068BA
:10177000C378017841EA0361837840781B0443EA27
:10178000002001432068C0F804136265102084F82B
:10179000510084F852000020F8BD0000F4440258C3
:1017A00000D3CEFEC0E1E40040F1E9FD40787D01C8
:1017B00000796CFC005A6202001F0AFA80F0FA02FB
:1017C00040420F00F0B5C16B2C3000252C462B4653
:1017D000866950F8212036B30020F0BD6D1CD6007C
:1017E00019D5641C012C00D10B46491C042900D3D7
:1017F000091F50F82120D268002A07DB520005D5C6
:101800000122C261491C042900D3091F103080E85D
:101810001A000120F0BD920013D501240B46491C8B
:1018200011E050F82120D268002A01DB042DD5D325
:101830004CB350F8232000214FF080764FF04077D2
:101840001FE0491C641C0429EBD3091FE9E7156953
:101850001560D66055690DB19560D760D56845F0C3
:101860000045D560D0F820C0BCF1000F02D045F093
:101870008045D5605B1C042B00D31B1F491C50F80E
:101880002320A142E3D300218161A5E77047000036
:101890002DE9F04387B014216846FEF7DAFD3F4C8E
:1018A000206840F400402060206800F4004005906B
:1018B000206840F480302060206800F4803005907B
:1018C000206840F400302060206800F4003005906B
:1018D00032480830016841F040010160016801F0C0
:1018E00040010591016841F004010160016801F0C7
:1018F00004010591016841F00101016000680225C1
:1019000000264FF0030800F0010005900B27049714
:101910004FF4D04069468DE86101214800F014FA87
:10192000DFF8809069460095CDE90156CDE903675F
:10193000484600F009FA862004978DE861011A48AC
:10194000694600F001FA302004978DE8610169468C
:10195000484600F0F9F9002207213D2000F0A6FBDF
:101960003D2000F096FB206840F400402060206895
:1019700000F400400590206840F48030206020682A
:1019800000F480300590206840F40030206020682A
:1019900000F40030059007B0BDE8F083D844025849
:1019A00000180258000802580000025870472DE93C
:1019B000F041044600681F46D0F80032DB0718D11A
:1019C000D0F8003223F0787343EA415121F4F81142
:1019D00041EA024141F00D01C0F8001200F0B2FAF4
:1019E0004FF47A76054607E000F0ACFA401BB042AF
:1019F00002D90120BDE8F0812068D0F80002C007BC
:101A0000F2D12068D0F8040280B238600020F1E7FB
:101A1000084808B5694600680FF04DFC009800289A
:101A200007D005494FF080500860BFF34F8FBFF3D8
:101A30006F8F08BD7401002404ED00E010B519B1EA
:101A400090F85220102A01D0012010BDFFF76CFA47
:101A5000002010BD70B505460068D0F8000220F4E3
:101A6000706400F08BFC1149114A0144914202D28A
:101A700044F4007416E00F490F4A0144914202D227
:101A800044F440740EE00D490D4A0144914209D3DB
:101A90000C4908440C49884202D244F4807401E0A5
:101AA00044F480642868C0F8004270BD00D3CEFEC4
:101AB000C0E1E40040F1E9FD40787D0100796CFC73
:101AC000005A6202001F0AFA80F0FA0210B590F87C
:101AD00051300021C26A102B01D0012010BD2323F8
:101AE00080F851300023D468491C042944F0804414
:101AF000D46000D3091F5B1C00EB8102042BD26A67
:101B0000F1D30121C16401680A6842F002020A604F
:101B100001680A6842F001020A600168D1F8002DEC
:101B200042F00102C1F8002D016801F58051D1F8A1
:101B3000042142F00102C1F80421016801F580513D
:101B4000D1F8082142F00102C1F80821016801F52D
:101B50008051D1F8602142F48172C1F860211021D6
:101B600080F85110222180F85210006800F5805052
:101B7000D0F834114DF241021143C0F83411002065
:101B800010BD10B590F85110C26AE9B3232180F856
:101B90005110016801F58051D1F8343148F2410407
:101BA000A343C1F83431016801F58051D1F8043103
:101BB00023F00103C1F80431016801F58051D1F827
:101BC000083123F00103C1F8083101680B6823F0E4
:101BD00001030B600168D1F8003D43F00103C1F837
:101BE000003D01680B6823F002030B600021D368FD
:101BF000491C042923F08043D360F8D30021C16439
:101C0000102180F8511000E003E080F8521000200D
:101C100010BD012010BD2DE9F0411546044621B14B
:101C200094F85100102804D04FE0606D40F001009E
:101C300007E000222046FEF7C3FF20B1606D40F0B0
:101C40000200606541E0A06A04EB8001401C0428AA
:101C50008E69A06201D3001FA06204EB800081693D
:101C6000206800F58050C0F8201100F06BF907469D
:101C70004FF010081AE0206800F58050D0F860019D
:101C8000C0040BD5606D40F008006065206800F569
:101C90008050D0F86001A065E02014E0681C05D0F9
:101CA00000F050F9C01BA84208D83DB1F0680028E8
:101CB000E1DB84F851800020BDE8F081606D40F0E8
:101CC00004006065404684F851000120F4E7704745
:101CD0007047000070B505460068D0F80042E40780
:101CE0001FD1D0F8000220F0787040EA415011492D
:101CF00020F4F81040EA024020F00C00001D9AB2D7
:101D0000C1F8042240F00100C1F8000200F01AF905
:101D10004FF47A76044606E000F014F9001BB04256
:101D200001D9012070BD2868D0F80002C007F3D1A6
:101D300070BD0000008002400248016841F00101CE
:101D400001607047200400582DE9F84F6C4C0022C8
:101D50004FF0B04A4FF0010B4FF0030E4FF00F0958
:101D60000B680BFA02F73B40BB4270D14D68022D65
:101D700001D0122D12D1D50800EB850CDCF82060C3
:101D80005507ED0E09FA05F826EA0806D1F8108085
:101D900008FA05F848EA0608CCF82080D0F8008058
:101DA000560091F804C00EFA06F50CF0030C28EA70
:101DB00005080CFA06FC4CEA080CC0F800C0D1F883
:101DC00004C0BCF1010F08D0BCF1020F05D0BCF17A
:101DD000110F02D0BCF1120F16D1D0F808C0D1F803
:101DE0000C802CEA050C08FA06F848EA0C08C0F842
:101DF0000880D0F804C02CEA070C0F79C7F300174D
:101E0000974047EA0C074760C768AF438D68B54005
:101E10003D43C5604D68ED006BD53A4D2E6846F0E8
:101E200002062E602D6822F0030606F1B04605F08A
:101E300002050095D6F808C495072F0F09FA07F593
:101E40002CEA050C304DA84202D100252EE050E0CE
:101E50002E4DA84201D1012528E02D4DA84201D1E7
:101E6000022523E02B4DA84201D103251EE02A4D77
:101E7000A84201D1042519E0284DA84201D1052529
:101E800014E0274DA84201D106250FE0254DA842B8
:101E900001D107250AE0244DA84201D1082505E01B
:101EA000224DA84201D1092500E00A25BD4045EA9E
:101EB0000C05C6F8085425684E689D43F60300D506
:101EC0001D43256065684E689D43B60300D51D43DC
:101ED0006560DAF8005056464F689D43FF0200D512
:101EE0001D43356075684F689D43BF0200D51D4393
:101EF0007560521C102AFFF433AFBDE8F88F000064
:101F000080000058F44402580000025800040258AF
:101F100000080258000C0258001002580014025821
:101F200000180258001C02580020025800240258D1
:101F300042694A40426170470AB101837047418358
:101F40007047000001488068704700002C000024A2
:101F50000248816802781144816070472C00002497
:101F6000032010B500F0C2F80F2000F007F808B108
:101F7000012010BD00F08CF8002010BD00B500223B
:101F8000014637208BB000F091F8372000F081F83F
:101F90001648016841F020010160006809A900F0BD
:101FA00020000890684600F0B9F90598B0B100F03B
:101FB000FFF940000E490F4AB0FBF1F10E480260F4
:101FC00040F2E732491E41600021C0E903218160EF
:101FD00000F0D8FC28B101200BB000BD00F0E8F9FA
:101FE000E8E7054800F0EAFCF6E70000E84402589C
:101FF00040420F00001400405C120024134A417854
:102000001160111D03780A1DE3B143680B60017B69
:10201000C37A090741EA0361837A41EAC341437BFA
:1020200041EA8341837B41EA4341C37B41EA034167
:10203000437A41EA0321037A007841EA43010143EC
:1020400011607047002008601060704798ED00E054
:10205000BFF35F8F0448016821F4803101600249B9
:10206000002070310860704724ED00E0074940F01F
:102070000100086005487038016841F48031016052
:10208000BFF34F8FBFF36F8F7047000094ED00E0F8
:102090007047002809DB012100F01F029140400930
:1020A000800000F1E020C0F8001170470E4BF0B442
:1020B0001B68C3F30223C3F10704042C00D90424D2
:1020C0001D1D072D01D2002300E0DB1E012606FAAC
:1020D00004F56D1E0D409D409E40761E164045EA5B
:1020E0000601F0BC01F096BC0CED00E0064A00F0E1
:1020F000070110684FF6FF03184040EA012003492A
:1021000008431060704700000CED00E00000FA0585
:1021100010B500F063F9084909684FF4807292FA2B
:10212000A2F201F47061B2FA82F2D140034A515C2A
:10213000C8400349086010BD18440258C81C010873
:10214000380000242DE9F047DFF8BC9104460E4624
:10215000D9F8000000F00700B0420CD2D9F8001006
:1021600021F007013143C9F80010D9F8000000F050
:102170000700B0427ED12078DFF89081800707D534
:10218000D8F80010E26821F00F011143C8F80010E0
:102190002078C00762D0D8F80010A26821F47061DE
:1021A0001143C8F8001059496068183902281CD03A
:1021B00003281DD0096801281DD04907002960DACD
:1021C000524F083F396821F0070101433960FFF79A
:1021D000B9FE0546606841F28831022813D0032811
:1021E0001ED001288A4627D034E009688903E5E734
:1021F00009688901E2E7C905E0E7FFF7A3FE411B93
:10220000514501D923E08A463868C0F3C20002284C
:10221000F3D123E0FFF796FE411B514501D916E0AB
:102220008A463868C0F3C2000328F3D116E0FFF7EE
:1022300089FE411B51450AD83868C0F3C200012805
:10224000F5D10BE0FFF77EFE411B514502D903207B
:10225000BDE8F087386810F0380FF3D1D9F80010D6
:10226000484601F00701B1420DD9016821F007018C
:10227000314300E005E00160006800F00700B04273
:1022800001D00120E4E72078400707D5D8F80010F6
:10229000226921F070011143C8F80010207801076D
:1022A0001B4805D50168626921F070011143016086
:1022B0002178C90605D50168A26921F4E0611143BE
:1022C00001602078800607D51149091D0868E26978
:1022D00020F070001043086000F080F8D8F800107B
:1022E0004FF4807292FAA2F201F47061B2FA82F2B3
:1022F000D140084A515CC840074908600F20FFF7E9
:102300003DFE0020A4E700000020005218440258BF
:102310001C440258C81C0108380000243F220260F7
:10232000144A126802F007024260124A0832136827
:1023300003F470638360136803F00F03C3601268D3
:1023400002F0700202610B4A0C32136803F0700352
:102350004361126802F4E0628261064A1032126838
:1023600002F07002C2610448006800F007000860D3
:1023700070470000104402580020005210B5FFF7CB
:10238000C7FE08490968012292FAA2F201F00F0182
:10239000B2FA82F2D140044A515CC8400349086055
:1023A00010BD000018440258C81C01083C0000245D
:1023B00010B5FFF7E3FF07490968102292FAA2F26D
:1023C00001F07001B2FA82F2D140034A515CC84078
:1023D00010BD00001C440258C81C01083548F0B567
:1023E0000068364D10F03801334809D0041108292F
:1023F00004D0C61010290BD018290BD02046F0BDF0
:1024000029688906FBD52968C1F3C101C840F0BD20
:102410003046F0BD274918310A68096812F00302F6
:10242000274BC1F305111B68264F03F001033F68DA
:10243000DFED250AB7EE001AC7F3CC0717FB03F34D
:1024400000EE103A214BB8EE400A06D0012A01D026
:10245000022A2BD0B4FBF1F008E02A68920603D5DB
:102460002A68C2F3C102D040B0FBF1F001EE900A3D
:102470001868B8EE612AC0F3080001EE900A1868E7
:10248000F8EE611A40EE201A31EE810A22EE000ABF
:10249000C0F34620401C00EE900AF8EE600A80EE81
:1024A000201ABCEEC10A10EE100AF0BDB6FBF1F026
:1024B000DCE70000104402580090D00300440258AA
:1024C0002C44025834440258000000393044025869
:1024D0002DE9F05F04460078DFF8FC8341F288398B
:1024E000DFF8F8A3FE4DC0074ED0D8F800104046E4
:1024F000C1F3C20102291AD00068C0F3C200032848
:1025000005D1DAF8000000F0030002280FD060685F
:10251000B0F5803F12D010B1B0F5A02F19D02868C7
:1025200020F480302860286820F4802009E02868A2
:10253000800329D56068002874D025E0286840F41D
:1025400080302860606890B1FFF7FCFC06464F467B
:1025500009E0286840F480202860EFE7FFF7F2FCEC
:10256000801BB8427DD828688003F7D50CE0FFF7C0
:10257000E9FC06464F4604E0FFF7E4FC801BB84246
:10258000F0D828688003F7D42078D64F80075AD532
:10259000D8F8001040464FF47C3B11F0380F13D0B0
:1025A0000068C0F3C200032803D1DAF800008007F6
:1025B0000AD0E068A8B3296821F019010143296015
:1025C000FFF7C0FC06461DE02868400702D5E0681A
:1025D0000028B1D02868E16820F01900084328607D
:1025E000FFF7B0FC064604E0FFF7ACFC801B0228B6
:1025F000B8D828684007F7D507E0FFF7A3FC801B91
:102600000228AFD828684007F7D538689BFAABF2A4
:1026100020F47C312069B2FA82F2904001433960A3
:1026200011E000E0AEE0286820F001002860FFF72C
:1026300089FC064604E0FFF785FC801B022891D840
:1026400028684007F7D42078C00655D5D8F8001080
:1026500040464FF0F84BC1F3C201012917D0006882
:1026600000E0EDE0C0F3C200032805D1DAF8000075
:1026700000F0030001280AD0E069002828682CD067
:1026800040F080002860FFF75DFC064616E02868F1
:10269000C00502D5E069802874D138689BFAABF296
:1026A00020F0F841206AB2FA82F29040014339608A
:1026B00022E0FFF747FC801B022899D82868C00554
:1026C000F7D538689BFAABF2216AB2FA82F220F0B1
:1026D000F8409140084338600EE020F08000286008
:1026E000FFF730FC064604E0FFF72CFC801B0228B5
:1026F00087D82868C005F7D42078000724D5774FFD
:1027000060694C37002838680FD040F0010038600D
:10271000FFF718FC064604E0FFF714FC801B0228B4
:102720008DD838688007F7D50EE020F001003860BA
:10273000FFF708FC064604E0FFF704FC801B0228B4
:102740007ED838688007F7D42078800623D5A06922
:10275000002828680FD040F480502860FFF7F2FB73
:10276000064604E0FFF7EEFB801B022868D82868C5
:102770008004F7D50FE020F480502860FFF7E2FBDB
:10278000064605E0D6E0FFF7DDFB801B022857D8A0
:1027900028688004F7D42078400744D5524F386821
:1027A00040F480703860FFF7CDFB064604E0FFF789
:1027B000C9FB801B642843D83868C005F7D5474F4C
:1027C000A068483701280AD008B1052811D0386818
:1027D00020F001003860386820F0040002E038681A
:1027E00040F001003860A06888B1FFF7ABFB0646F7
:1027F00009E0386840F004003860F0E7FFF7A2FB1A
:10280000811B49451CD838688007F7D50BE0FFF7D6
:1028100099FB064604E0FFF795FB811B49450FD85D
:1028200038688007F7D4606AF0B3D8F80010C1F3B5
:10283000C20103297ED00228286820F0807000E0C1
:1028400079E0286003D0FFF77DFB044687E0FFF7BF
:1028500079FB064604E0FFF775FB801B02287BD856
:1028600028688001F7D4DAF8001040F2F33291437F
:10287000E26A41EA0211A26A1143CAF8001094F810
:1028800034004FF4FE02218E4002491EA0F5007074
:1028900080B2C1F308010843218F491E02EA0141B9
:1028A000084394F83C1000E05CE0491E120202EA82
:1028B000016108430949083108600B1D19684FF68A
:1028C000F872A06C914392FAA2F2B2FA82F29040AE
:1028D00001431960014809E0104402582844025895
:1028E000004402580444025800480258001D016880
:1028F000226C21F00C01114301600168626C21F02F
:10290000020111430160016841F4803101600168F6
:1029100041F400310160016841F4802101600168E7
:1029200041F001010160286840F080702860FFF7E5
:1029300009FB01E018E00FE0044604E0FFF702FBAA
:10294000001B022808D828688001F7D50AE0FFF7A5
:10295000F9FA001B022802D90320BDE8F09F28687D
:102960008001F4D40020F8E70120F6E703490A6863
:1029700022F4600202430A60704700000404005819
:102980007047704710B5040003D094F83D0010B1B3
:1029900007E0012010BD002084F83C00204600F034
:1029A0000CF8022084F83D002068211D00F034FD61
:1029B000012084F83D00002010BD70470168CA68FE
:1029C00042F00102CA600068018841F00101018003
:1029D00000207047704770B50446006801694FF0E9
:1029E0000005C943890715D4C168C943890711D4B3
:1029F000E91E016101202077206880698007204658
:102A000002D0FFF7E7FF04E000F0A5F8204600F051
:102A1000A3F8257720680169C943490717D4C1681D
:102A2000C943490713D46FF00401016102202077E4
:102A30002068806910F4407F204602D0FFF7CAFF6B
:102A400004E000F088F8204600F086F8257720683A
:102A50000169C943090716D4C168C943090712D4DB
:102A60006FF008010161042020772068C0698007A9
:102A7000204602D0FFF7AEFF04E000F06CF82046DD
:102A800000F06AF8257720680169C943C90617D4A0
:102A9000C168C943C90613D46FF010010161082051
:102AA00020772068C06910F4407F204602D0FFF7ED
:102AB00091FF04E000F04FF8204600F04DF8257734
:102AC00020680169C943C90708D1C168C943C9075A
:102AD00004D1891E0161204600F03FF82068016999
:102AE0006FF08005C943090607D4C168C9430906C8
:102AF00003D405612046FFF743FF20680169C943FD
:102B0000C90507D4C168C943090603D40561204635
:102B1000FFF736FF20680169C943490609D4C16837
:102B2000C943490605D46FF040010161204600F019
:102B300016F820680169C94389060BD4C168C943E6
:102B4000890607D46FF0200101612046BDE870407E
:102B5000FFF717BF70BD70477047FFF7F9B97047AF
:102B6000294930B50A68002A07DA0A6842F00042AB
:102B70000A608169891C816130BD234A083A126864
:102B8000224C2262204A121F127884F824201E4A06
:102B9000D21E1278A2621C4A0C321268E2621A4AF1
:102BA000921E12882286096861631749091D096807
:102BB000A163154910310968E16300211F4A14A57A
:102BC0006B5C1385D3695B06FCD5491CC9B2292906
:102BD000F6D31B4900230B600A68002AFCD0026868
:102BE0002260426862608268A260C268E260026934
:102BF0002261426962618269A261C069E0610B6021
:102C000008680028FCD030BD2CED00E09C120024A8
:102C10000D0A456E74657220486172644661756C78
:102C2000745F48616E646C65722C205379737465AF
:102C30006D2048616C742E0D0A00000000100140E8
:102C40004000002438B504466A4600200090012167
:102C500063692068984700286FF0040525DB6369E5
:102C6000012120686A46984700281EDB009840072B
:102C700001D4012038BD6369002120686A46984765
:102C8000002812DB0098C10408D44FF4045181439A
:102C90001CD081041CD4C0051CD415E063691F211D
:102CA00020686A469847002801DA284638BD00980F
:102CB000C10401D4062038BDC0F38200062805D027
:102CC000022805D0052805D0052038BD022038BDD2
:102CD000032038BD042038BD2DE9F8430446002008
:102CE0000090064605466068B8BBA06800B1804702
:102CF000202020606FF00407636912216A46304685
:102D00009847002801DA3D4607E0009800F01F00D0
:102D1000B04202D10025266002E0761C1F2EEBD9BE
:102D200020681F2802D96FF002053AE01DBB236915
:102D300000214FF400429847002823DB63690021FB
:102D400020686A469847002814DBA06980474FF442
:102D5000FA7906466FF001080FE016E0A069804797
:102D6000801B484508D86369002120686A46984757
:102D7000002802DA3D4614E0454600980004EDD4F0
:102D80001DB10EE06FF003050BE0A06980474FF422
:102D9000FA670646A0698047801BB842FAD901202D
:102DA00060602846BDE8F88388B1CA687AB18A684D
:102DB0006AB10A695AB10A6882604A68C260CA6820
:102DC00042618A68026109698161002070474FF0A1
:102DD000FF3070477FB5FFF73BF91D480125002400
:102DE000019007208DF808008DF80F5003268DF80C
:102DF0000B6068468DF80E408DF800508DF80D4040
:102E00008DF80A408DF801408DF809408DF80C408E
:102E1000FFF7F4F80F4801900D208DF80800684680
:102E20008DF80F408DF80B608DF80E508DF8005026
:102E30008DF80D408DF80A408DF801508DF809404D
:102E40008DF80C40FFF7DAF80420FFF70FF97FBD8B
:102E50000000043000400430F0B587B0142168460B
:102E6000FDF7F7FA2548016841F0020101600168A9
:102E700001F002010591016841F040010160016823
:102E800001F040010591016841F001010160016814
:102E900001F001010591016841F004010160016840
:102EA00001F004010591016841F0800101600068B2
:102EB0000122134E940200F0800021460590304616
:102EC000FFF73AF801220F4FD50338462946FFF79E
:102ED00033F803200094012469460194CDE90240AF
:102EE0003046FEF731FF00206946CDE90054CDE9B8
:102EF00002403846FEF728FF07B0F0BDE044025814
:102F00000000025800080258FEE77047124813A15B
:102F10001CB503240023CDE90040134880220EF0A5
:102F2000CDFB0D4902200023091D0202CDE900015D
:102F300011480EA10EF0C2FB0020802203460FA113
:102F4000CDE9004010480EF0B9FB012803D1BDE8DF
:102F50001C400DF023BF1CBD08000024466972739D
:102F600074205461736B0000CD1000085365636FCB
:102F70006E64205461736B00B53100085468697247
:102F800064205461736B0000D93400082DE9F041CE
:102F900007460B4815460E46007808B900F080FB3E
:102FA000EFF31184202080F311882A4631463846F9
:102FB00000F008F8E1B281F31188BDE8F08100006B
:102FC000DC12002470B500EB40000E461349144695
:102FD00001EBC005E86A183520B101280FD002289E
:102FE00005D113E0284600F08FFBA04201D2002457
:102FF00011E022463146284600F0A6FC0BE02846A8
:1030000000F082FBA042F4D20446F2E731462846A3
:1030100000F06DFC0446204670BD0000DC12002468
:103020000FB408B504A96A460091039900F003F8AB
:1030300001B05DF814FB2DE9F04198B0804607A877
:1030400015460C46029040200026CDE90306CDE946
:10305000056814F8011B00296FD0252908D002A8A3
:1030600000F026FC05980028F3DA18B0BDE8F081DE
:1030700000200122217823291ED02B2919D02D29A7
:1030800002D0302908D102E040F0010001E040F018
:103090000200641C002AEDD100222178A1F1300346
:1030A0000A2B0CD202EB820201EB4202303A641C82
:1030B000F3E740F00400ECE740F00800E9E7002304
:1030C000CFB22E2F0BD114F8011FA1F130070A2F18
:1030D00005D203EB830301EB4303303BF3E76C2999
:1030E0000DD068290BD070294AD00BDC252914D0CB
:1030F00058292BD063290CD0642911D112E014F87F
:10310000011FECE773292CD0752917D0782907D136
:103110001CE02868011D2960017802A800F0C8FBA6
:10312000641C9FE729680F1D2F600968CDE9002006
:103130000A2202A800F0F3FAF2E72BE029680F1D3B
:103140002F600968CDE900200A2206E029680F1DDA
:103150002F600968CDE90020102202A800F042FB90
:10316000DEE72868011D2960076817F8011B0029A0
:10317000D6D002A800F09CFB05980028F5DACFE72E
:103180002868011D29600168082010220346CDE946
:103190000006E2E7059800287FF767AF049820B1A2
:1031A00007A902464046FFF7F1FEDDE90410084496
:1031B00005905AE7002186B008460CF015FF10482C
:1031C00005AB03906FF07F4004900E480E4A0F4904
:1031D000059000208DE807000D4804AA03A905F01A
:1031E0007FFA0B4805F046FC0A49094805F086FCC1
:1031F0004FF4FA6407F0D6FE20460DF007FDF9E71C
:10320000C0A8010BC0A801014D0101082158000808
:10321000D0010024394B0008402010B572B680F36D
:103220001188BFF34F8FBFF36F8F62B60EF0FCFAB9
:1032300018B104494FF080500860002080F31188D5
:1032400010BD000004ED00E0284830B59DB00168D5
:1032500021F004010160254800240C30016841F48C
:1032600040410160016801F440411B9101688904FB
:10327000FCD5012000900521039400040190022058
:103280000794CDE90A01C021099008250E90CDE9E7
:103290000C101194CDE90F056846FFF719F900B13C
:1032A000FEE714A93F201390032081E8310040205D
:1032B00017901A900101CDE91801042113A8FEF717
:1032C00041FF00B1FEE70A48016841F0800101605A
:1032D0000748F430016841F002010160006800F025
:1032E00002001B90FEF728FD1DB030BD0C480258AF
:1032F000004402581C48016841F4700101601B49F8
:10330000086840F001000860184A00201032106080
:103310000A68174B1A400A60144A18321060121DCE
:103320001060121D1060114A28321060121D1060CA
:10333000121D1060121D1060121D1060121D106011
:10334000121D1060121D10600A6822F480220A60AB
:1033500006496031086001200649C1F80801C0062D
:10336000014980390860704788ED00E00044025848
:103370007FEDF6EA0080005170B54FF0804420697F
:10338000E16810F0020F204D01F0020108D039B1C0
:103390004FF6FD702061E1680140E160E868804718
:1033A0002069E16810F0040F01F0040108D039B180
:1033B0004FF6FB702061E1680140E16028698047B9
:1033C0002069E16810F0080F01F0080108D039B158
:1033D0004FF6F7702061E1680140E160686980475D
:1033E0002069E16810F0100F01F010010BD00029E6
:1033F00009D04FF6EF702061E1680140E160A869F3
:10340000BDE87040004770BD100000240148FFF780
:10341000E2BA00005C1200242DE9F04702884FF068
:10342000804A254C254D264EA042264F264B09D0DA
:10343000504507D0A84205D0B04203D0B84201D0D1
:10344000984204D122F0700C4A6842EA0C02DFF87C
:103450007CC0DFF87C80A042DFF878900FD0504528
:103460000DD0A8420BD0B04209D0B84207D0984244
:1034700005D0604503D0404501D0484503D122F432
:103480004075CA682A438D8A22F080022A4302804E
:103490008A68C2620A880285A04207D0984205D095
:1034A000604503D0404501D0484501D1098A0186D5
:1034B00001214161BDE8F0870000014000040040A7
:1034C00000080040000C00400004014000400140A2
:1034D00000440140004801400EB500200AA1FFF75A
:1034E0009FFD0EA04FF4FA6407C88DE80700002086
:1034F0000DA1FFF795FD0B21684607F0ABF82046BC
:103500000DF084FBF3E70000546869726420546195
:10351000736B20456E7465720D0A00006E696861F8
:103520006F203F3F0D0A00005468697264205461A7
:10353000736B204C6F6F70696E670D0A000000009E
:10354000014800F009B8000004020024014800F01E
:1035500003B80000300A00242DE9F0410446006859
:10356000C569066881684FF00007A90615D5808CEB
:10357000E28AA168C0B28854E18A491C8AB2E28218
:10358000E1898A4200D3E782628B8A4202D2618B50
:10359000491C6183616A01B18847280617D5300646
:1035A00015D5A08A002863D0012084F82800618AFC
:1035B0006068405C21680885608A401C80B2608237
:1035C000A189884200D36782A08A401EA082680633
:1035D00013D5700611D5A08AF0B3618A6068405C8B
:1035E00021680885608A401C80B26082A189884277
:1035F00000D36782A08A401EA0822068016A41F041
:10360000010101622068016A41F002010162206843
:10361000016A41F0040101622068016A41F0080179
:1036200001622068016A41F0100101622068016AAC
:1036300041F0400101622068016A41F48071016239
:103640002068016A41F4007101622068016A41F456
:1036500000310162206800E015E0016A41F4801148
:1036600001622068016A41F020010162BDE8F08139
:103670002068016821F0800101602068016841F044
:1036800040010160A3E72068016821F0400101606A
:10369000206A00B1804784F82870AEE7FEE700009A
:1036A00010B5124C032000212061606110A0A061C0
:1036B00004F1A800E0614FF48060A16220620CA0D8
:1036C0006162E162206604F5956060661020216702
:1036D000C4E91A01E01D616708A1FCF7EBFE08A12F
:1036E0002046FCF7E7FE2020A07110BDDC1200246C
:1036F0005465726D696E616C000000005254540094
:1037000053454747455200000269C1688A4203D8C1
:103710008068401A104400E0501A401E70472DE99E
:10372000FC5F0E008046C6F100009946DDE90C47BB
:103730009246834600D40846012502E090FBFAF049
:103740006D1C5045FADAA94500D94D4624B1002E2A
:1037500001DB780700D5641EB80702D5B9F1000F68
:103760000FD0F8070DD164B1A5420AD220214046FE
:10377000641E00F09DF8D8F80C000028F3DABDE8CC
:10378000FC9FD8F80C000028F9DB002E02DA2D216E
:103790005E4602E0780707D52B21404600F088F806
:1037A000D8F80C000028EADB07F0030002280FD14C
:1037B000B9F1000F0CD15CB1A54209D230214046CD
:1037C000641E00F075F8D8F80C000028F3DAD6E78C
:1037D000CDE900474B4652463146404600F002F8DC
:1037E000CDE700002DE9F84F012599461746884698
:1037F000DDE90A4B824608462E4602E0B0FBF7F0B0
:10380000761CB842FAD2B14500D94E465FEACB7079
:1038100017D1B4B15FEA8B7002D5B9F1000F02D0B5
:10382000202000900BE03020FBE70099641E5046FA
:1038300000F03EF8DAF80C00002835DB0CB1A642A7
:10384000F3D3DAF80C0000282EDBB9F1010F02D90E
:10385000A9F1010903E0B8FBF5F0B84201D37D43BB
:10386000F3E7DFF84890B8FBF5F000FB158819F88E
:103870000010504600F01CF8DAF80C00002803DBBA
:10388000B5FBF7F5002DEED15FEACB700CD0002C24
:103890000AD0A64208D220215046641E00F008F843
:1038A000DAF80C000028F2DABDE8F88FD81C01081D
:1038B00010B50446D4E90130421C934205D3236875
:1038C0001954A260E068401CE060D4E90102824221
:1038D00009D121682069FFF759FBA168884203D00C
:1038E0004FF0FF30E06010BD0020A06010BD2DE95A
:1038F000F047C4681746894605464FF00008286916
:10390000A04201D9061B02E0A968201A0E1AA86875
:10391000761E001BB04200D80646BE4200D33E468B
:103920006868324649462044FCF76CFDA868BF1B16
:103930003444A042B044B14400D10024EC60002FD4
:10394000DDD14046BDE8F0872DE9F04104468846C8
:103950001646D4E90207E168C51B6068B542084411
:1039600006D94146FCF74EFDB819E060BDE8F0818C
:103970002A464146FCF746FD761B606808EB0501C8
:103980003246FCF73FFDE660F0E700000FB4054B60
:1039900010B503A9044A029800F01EF910BC5DF8A6
:1039A00014FB0000E1580008CC0100240FB47CB5E2
:1039B0000C0009AD01D0611E00E00021CDE900013D
:1039C000064B6A462946089800F006F9002C02D0FA
:1039D000009A002111707CBC5DF814FBDF420008E6
:1039E0007CB50C001D461646014601D0601E00E065
:1039F0000020CDE90010064B6A462946304600F00B
:103A0000EBF8002C02D0009A002111707CBD000060
:103A1000DF4200080907090E002804DB00F1E0205E
:103A200080F80014704700F00F0000F1E02080F8EB
:103A3000141D704702E008C8121F08C1002AFAD1FD
:103A400070477047002001E001C1121F002AFBD11E
:103A5000704700002DE9FF5F82B00021DDE90430EE
:103A6000020DDDF840B0034318D044F61050A2F226
:103A7000FF3242431514119801281FD0A5EB0B000B
:103A8000401C5FEA000A4FF000064E4FDFF8389105
:103A9000B046504615D5CAF1000413E01198012430
:103AA0004AA3012801D16FEA0B010298119AC0E9DB
:103AB0000031C0E9024206B0BDE8F09FCBF1000042
:103AC000DFE704460021404A491842EB0450CDE9A3
:103AD000001012E0E00707D032463B464046494618
:103AE000FCF7CDFD8046894632463B4610461946D6
:103AF000FCF7C5FD06460F466410002CEAD1DDE94F
:103B00000401DDE90023BAF1000F06DAFCF7B7FD86
:103B100042464B46FCF7B3FD05E0FCF722FE424669
:103B20004B46FCF71EFE04460E460022284BFCF7CF
:103B30009FFE03D84FF0FF30014607E00022254BDF
:103B400020463146FCF7F4FCFCF77AFE102409E02D
:103B5000002C0ADB0A220023FCF71EFC039B3032F8
:103B60001A55641E50EA0102F2D1641C039AC4F192
:103B700011031444119A012A03D0012208430DD1E4
:103B80000AE0084304D000204FF0110B119072E7B7
:103B9000A3EB0B056D1E0DE05B4504DD4FF000024D
:103BA00005F1010504E003DA4FF00002A5F101057B
:103BB000002AECD002981199C0E90231C0E9004511
:103BC00079E70000000014400000F03F30000000E2
:103BD0000000F0430000E03F2DE9FF4F95B09A460A
:103BE000884606460025EEE1252877D100242746A1
:103BF000F94A0121039400E0044316F8013F203BF9
:103C000001FA03F01042F7D130782A2811D06FF072
:103C10002F033078A0F13002092A16D8039A44F015
:103C2000020402EB820203EB42021044761C039072
:103C3000EFE758F8042B0392002A03DA504244F4C9
:103C40000054039044F00204761C30782E2816D1DC
:103C500016F8010F44F004042A280DD06FF02F024B
:103C60003078A0F13003092B09D807EB870302EB6A
:103C70004303C718761CF3E758F8047B761C3078AA
:103C80006C280FD006DC4C2817D068280DD06A2885
:103C900014D104E0742810D07A280FD10DE044F438
:103CA00000140AE044F4801401E044F440147278F3
:103CB000824202D104F58014761C761C3078662886
:103CC0000BD013DC582877D009DC002875D04528A4
:103CD000F6D04628F4D047281AD193E118E063289B
:103CE00035D0642879D0652812D18BE1702873D043
:103CF00008DC6728F1D069286FD06E280DD06F28B6
:103D000006D1ACE073282CD0752874D0782853D015
:103D10005246179990476D1C54E1C4F30250022893
:103D200009D003280DD0D8F8001004280DD00D605C
:103D300008F1040846E1D8F80010EA17C1E900527A
:103D4000F6E7D8F800100D80F2E70D70F0E718F8EC
:103D5000041B8DF8001000208DF80100EB460120B7
:103D600003E058F804BB4FF0FF3061074FF000014B
:103D700002D40DE009F101018946B9420FDA81450B
:103D8000F8DB1BF809100029F4D108E009F1010162
:103D900089468142FADB1BF809100029F6D1039805
:103DA0005346A0EB090721463846179A00F080FADF
:103DB000284400EB090507E044E008E10DE01BF8AA
:103DC000010B524617999047B9F10109F7D25346B2
:103DD00021463846179AF2E039E00A21C4F302522C
:103DE0004FF0000B0091022A06D058F8040BC117BF
:103DF000032A09D00AE023E008F1070020F00702B7
:103E0000F2E80201904605E000B2C117042A01D190
:103E100040B2C117002906DA0A460021404261EB90
:103E200002012D2202E0220504D52B228DF8042068
:103E3000012203E0E20701D02022F7E7914657E094
:103E40000A2100E010214FF0000B00910BE010213F
:103E50004FF0000B44F004040827009103E0082011
:103E60004FF0000B0090C4F30252022A05D058F81C
:103E7000040B0021032A08D008E008F1070020F015
:103E80000702F2E80201904603E080B2042A00D162
:103E9000C0B24FF0000922072AD53278702A07D025
:103EA000DDF800C08CF0100C5CEA0B0C05D00EE0C5
:103EB00040228DF80420012208E050EA010306D0D8
:103EC00030238DF804308DF8052002229146009BA6
:103ED00083F0080353EA0B030AD150EA010201D12F
:103EE000620705D530228DF804204FF001097F1EAE
:103EF0003278582A04D039A20C920CAA02920BE014
:103F00003BA2F9E75B46009AFCF746FA0C9B9B5CE8
:103F1000029A521E0292137050EA0102F2D10298E4
:103F200004A9081A00F1200B600702D524F480349C
:103F300000E001275F4502DDA7EB0B0000E0002059
:103F400000EB0B01009003984944401A0390E003F2
:103F500006D453462146179A039800F0A9F9054460
:103F6000002706E001A85246C05D179990476D1CD6
:103F70007F1C4F45F6DBE0030CD553462146179ACC
:103F8000039800F095F9054404E030205246179953
:103F900090476D1C0099481E00900029F5DC08E050
:103FA0000298029952460078491C0291179990474D
:103FB0006D1CBBF10001ABF1010BF1DC5BE100F02A
:103FC00065F90544761C307800287FF40DAE19B0F1
:103FD0002846BDE8F08F0000092801003031323357
:103FE0003435363738396162636465660000000035
:103FF000303132333435363738394142434445461F
:1040000000000000600700D4062708F1070020F038
:104010000700F0E80223804603F0004C5FEA0C0042
:1040200001D097A009E0200501D596A005E0E007A2
:1040300001D095A001E0AFF24C001390307823F04E
:10404000004365280CD006DC452809D046281DD041
:1040500047287FD13BE0662818D067287AD136E020
:104060000021112F01DB112000E0781CCDE90001B7
:1040700004A90CA8FFF7EEFCDDE90D010C9A4FF046
:10408000000B07F10109109200914EE04FF0004043
:104090000097CDE9011004A90CA8FFF7DBFCDDE9CE
:1040A0000D020C9B0F994FF0000B9146109300925C
:1040B00011B9791C00EB0109B7EB090003D4C0F179
:1040C000FF3B07F10109A9EB0700019042E0012F36
:1040D00000DA01270021112F01DD112000E0384610
:1040E000CDE9000104A90CA8FFF7B4FCDDE90D013E
:1040F0000C9A00914FF0000BB946109221070FD493
:10410000009A4A4503DA914601E0A9F10109B9F1A3
:10411000010F05DD109AA9F10101515C3029F4D09D
:10412000B84202DA10F1040F03DA0121CDE90110DF
:1041300010E0002803DC8344A9EB000102E0411CED
:10414000494500DD8946A0EB0B00401C01904FF073
:1041500000400290200705D40198484502DB4FF04B
:10416000FF30019000208DF84B0002980DF14B07B5
:10417000B0F1004F25D002200C902B200D9002981A
:1041800000280CDA404202902D200D9007E00A2111
:104190000298FCF798F93031029007F8011D0C994C
:1041A000481E0C900029F2DC02980028EFD1791EFD
:1041B0000D980870307800F0200040F0450007F8B6
:1041C000020D11A8C01BC01D02901398007800B109
:1041D000012000EB0901019801EBE0710298014414
:1041E0000398401A401E0390E00306D4534621462C
:1041F000179A039800F05CF805441398007818B1FA
:104200005246179990476D1CE00323D5534621462B
:10421000179A039800F04CF805441BE0BBF1000F1F
:1042200007DB0098584504DD1098179910F80B002B
:1042300001E0179930205246904701980BF1010B8D
:10424000401E05F10105019004D12E205246179918
:1042500090476D1CB9F10001A9F10109DEDC05E010
:1042600017F8010B5246179990476D1C0299481E8A
:1042700002900029F4DC53462146179A03989EE6E3
:104280002D0000002B000000200000002DE9F0416F
:10429000044600251E461746880404D405E0394626
:1042A0002020B0476D1C641EF9D52846BDE8F0817A
:1042B0002DE9F041044600251E469046C80301D56D
:1042C000302700E02027880404D505E04146384621
:1042D000B0476D1C641EF9D52846BDE8F0814A68D8
:1042E000002A06D00A68531C0B6010704868401EF4
:1042F0004860704710B5FEF76DFDFCF787FBFDF7D2
:104300002FFEFEF7A1FFFEF7A7FD064800224FF49F
:104310008061FDF711FE01220348BDE81040D10382
:10432000FDF70ABE000002580008025870B50C469E
:104330000546880707D00DA0FFF728FB4FF4B6719C
:1043400012A006F009FA1C3C06F098FA0646294627
:10435000204603F025FCE86800682060E8680460F7
:104360003046BDE8704006F0E1BA00006D656D7042
:104370005F667265653A206D656D2070726F70655D
:10438000726C7920616C69676E6564002E2E5C2EFC
:104390002E5C557365725C6C7769705C7372635CDC
:1043A000636F72655C6D656D702E63002DE9F04181
:1043B00016460F46054606F061FA8046E86804682E
:1043C000DCB12946204603F0EBFBE9682068086071
:1043D0000020A660C4E90007A00707D009A0FFF7E6
:1043E000D5FA4FF48C7110A006F0B6F9404606F0ED
:1043F0009DFA04F11C00BDE8F081404606F096FAF3
:104400000020F8E76D656D705F6D616C6C6F633AED
:10441000206D656D702070726F7065726C792061AF
:104420006C69676E656400002E2E5C2E2E5C5573E1
:1044300065725C6C7769705C7372635C636F7265E4
:104440005C6D656D702E63002DE9F047184F804656
:1044500000250C467878C8B17868AA46B946011993
:10446000012918D9C0F1010608EB0501324648447C
:10447000FBF7C8FF7868A41B354481190C487960A4
:1044800000F008FA5046C7F804A0E8E74046BDE847
:10449000F04700F0FFB97A6808EB050109EB02006C
:1044A0002246FBF7AFFF786820447860BDE8F087CC
:1044B000C40100240FB42DE9F04F8BB08B460546A4
:1044C0000846FBF7E3FF00240A94052D0746A146A2
:1044D0000994059406940794089408D9A74840F2D3
:1044E0008D120368002B7DD0A6A0A5499847AC4E3D
:1044F00096F84C00002876D03078A84273D3711C0F
:104500005846FBF7B1FF00286DD00DF1680A00F0A6
:1045100085F996F85000B046A6F5806670B1A1A264
:104520003146204600F0C0F90446944831191C3049
:1045300050F82520204600F0B7F904442846012110
:1045400001F0D6F940B18D483119001D50F82520F1
:10455000204600F0A9F904442846022101F0C8F9D8
:10456000C8B131195A46204600F09EF90F2F044475
:104570000BD82022C7F10F0105A8FBF763FF311903
:10458000204605AA00F090F904443119204686A27D
:1045900000F08AF9044428461C2101F0A9F90028FA
:1045A0004BD03119204681A200F07EF90444284600
:1045B000042101F09DF990B100F058F9311902463B
:1045C000204600F071F904442846182101F090F9C2
:1045D00028B13119204674A200F066F90444284637
:1045E000082101E049E0C4E001F082F990B100F057
:1045F00035F931190246204600F056F904442846A0
:10460000102101F075F928B13119204666A200F099
:104610004BF904442846102101F06AF938B100F042
:1046200021F931190246204600F03EF904443119BF
:1046300020465FA200F038F904442846E02101F04A
:1046400057F9002860D0311920465AA200F02CF901
:1046500004442846202101F04BF9002827D0169A5F
:104660003119204600F020F904442846402101F089
:104670003FF988B131194CA215E0414841A1CDE97B
:1046800003024DA30092CDE9013154A2034600205C
:104690005BA1FFF70FFFFEE78021284601F028F914
:1046A00028B1311958A2204600F0FEF804442846EB
:1046B000402101F01DF980B1179A3119204600F010
:1046C000F3F804442846802101F012F928B1311989
:1046D00020464DA200F0E8F804442846802101F06D
:1046E00007F958B1189B052148A209A8FFF75EF900
:1046F0003119204609AA00F0D7F8044431192046A0
:1047000043A200F0D1F80444199A30195346C4F575
:104710008061FFF765F904444FF480618C4201D851
:10472000002800DA0C46A01C884201D940F2FE3471
:1047300098F82000454640B1194906F80490203108
:10474000A1F58460FBF790FE88B195F8500028B180
:104750003119204613A200F0A7F80444311920466D
:104760002CA200F0A1F801192B48FFF76DFE00F014
:1047700065F80BB0BDE8F00F5DF814FB9001002464
:10478000B21E01086C6576656C203C3D20454C4F9F
:10479000475F4C564C5F564552424F534500000010
:1047A000B02B012400000000200000005B0000008E
:1047B0005D2000002800000028257329206861730F
:1047C00020617373657274206661696C6564206131
:1047D000742025733A256C642E0000002E2E5C2E6A
:1047E0002E5C557365725C656173796C6F67676584
:1047F000725C7372635C656C6F672E63000000000F
:10480000656C6F67000000003A000000256C6400D2
:10481000290000000D0A0000B027012470B5064CE5
:10482000012594F84D0020B100F03CF884F84F5079
:1048300070BD84F84E5070BDB02B012470B5064C8D
:10484000002594F84D0020B100F02DF884F84F5069
:1048500070BD84F84E5070BDB02B012400A070478D
:1048600000000000002004F0A1BF000010B50CF013
:10487000D5FF10210346064802A2FFF797F8044827
:1048800010BD00007469636B3A253031306400005C
:10489000042C0124024601A0FFF778B8252E2A73C4
:1048A00000000000704770472DE9F043DFF88C905E
:1048B0000D00DFF88C8085B006461446174606D1F9
:1048C000D8F800302BB12C2249461EA098477CB165
:1048D00015E02C201BA202921BA3CDE9039023A27A
:1048E000CDE90003154B00202AA1FFF7E3FDFEE709
:1048F000D8F800307BB12D22104928A098474FF4FA
:1049000080612078B0B13246761C8A4212D2641C93
:1049100005F8010BF5E72D2020A202920AA3CDE9AC
:10492000039012A2CDE90003044B002019A1FFF768
:10493000C1FDFEE705B0E01BBDE8F083EA1E0108FB
:104940009001002464737400282573292068617322
:1049500020617373657274206661696C656420619F
:10496000742025733A256C642E0000002E2E5C2ED8
:104970002E5C557365725C656173796C6F676765F2
:10498000725C7372635C656C6F675F7574696C737E
:104990002E630000656C6F67000000007372630097
:1049A0002DE9F04704000F4607D141A0FEF7EEFFC6
:1049B0004FF4DC7142A005F0CFFE05F05FFF00264A
:1049C00066602772217E41F001012176657866706C
:1049D00005F0ACFF236A7BB10022204604219847F2
:1049E000236A4BB10022204611469847236A1BB127
:1049F0000022204602219847384602F091FB80466B
:104A000004F11000814606F01BF818B141464846F3
:104A100006F006F804F11400814606F011F818B10A
:104A20004146484605F0FCFF012D10D0042D0ED064
:104A3000032D0CD0E069002837D02AA0FEF7A6FF8E
:104A4000BDE8F0471EA040F2F71105F085BE207EBC
:104A5000C0F38001002900F0FB00207625D1E06939
:104A600038B927A0FEF792FF15A04FF4F37105F0B7
:104A700073FEE069042D08D00771E06905680C3504
:104A8000284606F02AF810B109E00671F5E723A0E0
:104A9000FEF77CFF0AA040F2EF1105F05DFE28460C
:104AA000E661BDE8F04706F00FB8BDE8F08700000A
:104AB000636F6E6E20213D204E554C4C000000006F
:104AC0002E2E5C2E2E5C557365725C6C7769705C63
:104AD0007372635C6170695C6170695F6D73672E8E
:104AE00063000000636F6E6E2D3E63757272656EBB
:104AF000745F6D7367203D3D204E554C4C000000A7
:104B0000636F6E6E2D3E63757272656E745F6D734A
:104B10006720213D204E554C4C000000696E6176A7
:104B20006C6964206F705F636F6D706C6574656431
:104B30005F73656D000000000EB590F82D1000F158
:104B40002E00490703D508A140F2D22202E010A1AD
:104B500040F2D622184B02900120CDE9002117A285
:104B600020A1FFF7A7FC0EBD6574685F6C696E6BD2
:104B70005F63616C6C6261636B3A202573206E65C4
:104B80007469662069732075702E0D0A000000009C
:104B90006574685F6C696E6B5F63616C6C626163A6
:104BA0006B3A202573206E657469662069732064F2
:104BB0006F776E2E0D0A00004C1E01082E2E5C2E03
:104BC0002E5C557365725C6C7769705C7372635CA4
:104BD000706F72745C6E657469665F706F72742E4C
:104BE000630000006E657469665F706F72745F7455
:104BF00061673A0070B5094E0024054604EB440095
:104C000006EBC000017D29B18068A84202D1204690
:104C100000F01EF9641C0A2CF0DB70BDF0240124A6
:104C20002DE9F74F84B04FF00A0B00248046DA4696
:104C30005F46D94602940194009404EB4400534922
:104C40000A2F039001EBC006357D1ED0002D2AD01F
:104C5000012D09D0022D07D24DA0FEF797FE5CA0D2
:104C600040F2231105F078FDB8F1000F11D0D8F80B
:104C70000000716888420CD1069810B1B168814279
:104C800007D1204607B0BDE8F08F002DE0D12746C0
:104C900009E0012D15D0022D05D3708A00998842B4
:104CA00001D3A2460090641C24B20A2CC5DB0598EF
:104CB00081074FF0FF30E5D40A2F15D017DA3C46B4
:104CC0003FE03248039950F831000028708A05D03F
:104CD00002998842E7D3A1460290E4E7019988420D
:104CE000E1D3A3460190DEE70599C907CAD0BAF11E
:104CF0000A0F51460FDA0C46244801EB440150F8E4
:104D0000310088B13CA0FEF741FE31A040F26D11A8
:104D100005F022FD08E0BBF10A0F594603DBB9F1AB
:104D20000A0F4946AEDA0C460A2C07DB38A0FEF71C
:104D30002DFE27A040F27F1105F00EFD204600F069
:104D400087F80A2C07DB32A0FEF720FE20A040F2F5
:104D5000831105F001FD0D4804EB440100EBC10592
:104D6000287D38B12FA0FEF711FE4FF4C27118A0B4
:104D700005F0F2FCB8F1000F02D0D8F8000068602E
:104D8000002068820698A8607BE70000F0240124D8
:104D90007374617465203D3D204554484152505F15
:104DA00053544154455F50454E44494E47207C7C06
:104DB000207374617465203E3D2045544841525033
:104DC0005F53544154455F535441424C45000000E9
:104DD0002E2E5C2E2E5C557365725C6C7769705C50
:104DE0007372635C636F72655C697076345C657462
:104DF000686172702E6300006172705F7461626C32
:104E0000655B695D2E71203D3D204E554C4C000088
:104E100069203C204152505F5441424C455F534908
:104E20005A4500006172705F7461626C655B695D18
:104E30002E7374617465203D3D20455448415250A5
:104E40005F53544154455F454D5054590000000094
:104E500070B50B4E00EB4004002556F8340018B135
:104E600004F0D4FA46F8345006EBC4000549057541
:104E70004582856045600A68C2608988018270BD8C
:104E8000F0240124361E01082DE9F0430D000746E9
:104E900085B009D07C684FF48078208840453CD1AB
:104EA0002079062839D10AE01EA0FEF76FFD21A067
:104EB00040F28A2105F050FC05B0BDE8F08360792E
:104EC00004282AD16088082827D1D4F80E0004903D
:104ED000A169686818B1814201D1012600E000266D
:104EE0000EB1012300E00223284604F1080204A9C0
:104EF000914600F01FFBE08840450ED16EB10222C2
:104F0000284604AB291DCDE90232CDE9001905F18F
:104F100026034A46194600F029FA384604F076FA84
:104F2000CAE700006E6574696620213D204E554C2D
:104F30004C0000002E2E5C2E2E5C557365725C6C4E
:104F40007769705C7372635C636F72655C697076BD
:104F5000345C6574686172702E630000FEB50400F5
:104F600015460E4607D145A0FEF710FD47A040F2BA
:104F70001E3105F0F1FB3EB94EA0FEF707FD43A040
:104F800040F21F3105F0E8FB3DB94DA0FEF7FEFCF5
:104F90004FF448713DA005F0DFFB2868214600F082
:104FA0007CFE08B14A4B3FE02868C0F303110E298C
:104FB00025D0A168636800EA01020B409A4208D03C
:104FC00080B2A0F57E41A93903D0E068B0B304F106
:104FD0000C05404B40491A7802EB420001EBC0003F
:104FE000077D022F2ED38768A7422BD12F684068F8
:104FF000874227D13146204600F070F8FEBD0120DF
:105000008DF8040000208DF805005E208DF8060064
:10501000687801AB00F07F008DF80700A8788DF864
:105020000800E8788DF809004FF4006004F12602CA
:1050300031460090204600F093FBFEBDFFE76FF085
:105040000300FAE7002202EB420001EBC000077DFB
:10505000022F08D38768A74205D12F68406887428E
:1050600001D11A70C6E7521CD2B20A2AEBD33246DB
:105070002946204600F09EF8DFE700006E6574695F
:105080006620213D204E554C4C0000002E2E5C2EFB
:105090002E5C557365725C6C7769705C7372635CCF
:1050A000636F72655C697076345C65746861727098
:1050B0002E6300007120213D204E554C4C00000015
:1050C00069706164647220213D204E554C4C000093
:1050D000301E010870010024F02401242DE9F8435A
:1050E0001546884606461C4802EB450100EBC10404
:1050F000207D022807D219A0FEF748FC23A040F229
:10510000EE2105F029FB144A05EB4501207D02EB59
:10511000C1050C35022813D1608A0327B0F58E7FB4
:1051200004D9211D304600F0C1F907E0B0F5877FB2
:1051300006D3211D2A46304600F0BEF900B9277576
:105140004FF4006006F126022B464146009030469F
:1051500000F006FBBDE8F883F02401246172705F63
:105160007461626C655B6172705F6964785D2E73F7
:1051700074617465203E3D204554484152505F5350
:10518000544154455F535441424C45002E2E5C2EF1
:105190002E5C557365725C6C7769705C7372635CCE
:1051A000636F72655C697076345C65746861727097
:1051B0002E6300002DE9FC5F8246164626300F461E
:1051C00001904FF0FF3408684FF0000B514600F09B
:1051D00064FD80B93868C0F303110E290BD057B1B4
:1051E00048B1012152463846FFF71AFD050005D5A2
:1051F00040B2BDE8FC9F6FF00F00FAE77F2D07D3A8
:1052000039A0FEF7C3FB3CA040F2C13105F0A4FA7F
:1052100005F0FF09424909EB490801EBC805287D63
:1052200078B1012809D0022807D23EA0FEF7AEFBD4
:1052300031A040F2CD3105F08FFABBF1000F06D15D
:1052400004E001202875C5F808A000E036B9394609
:10525000504600F02BF9002E0446CAD0287D304F6E
:1052600002280ED339494FF4006005F10C0381F890
:1052700000903146019A0090504600F071FA0446C1
:1052800030E001282ED10025344640F2F139608902
:105290002189884208D1206830B12DA0FEF776FB25
:1052A00015A0494605F058FA207B400603D424682F
:1052B000002CECD13DB10E2032464FF4207103F0AA
:1052C00027FF064602E0304604F0F2F946B157F8EF
:1052D000380008B104F09AF8002447F8386001E07B
:1052E0004FF0FF34204684E774797065206F76654F
:1052F00072666C6F770000002E2E5C2E2E5C55734C
:1053000065725C6C7769705C7372635C636F726505
:105310005C697076345C6574686172702E6300003D
:10532000F02401246172705F7461626C655B695D79
:105330002E7374617465203D3D2050454E44494EA6
:1053400047206F7220535441424C450070010024A5
:105350006E6F207061636B65742071756575657320
:1053600020616C6C6F776564210000002DE9FF4FB0
:1053700081B0984606004FF00007DDE90FA9DDF87F
:1053800038B007D12DA0FEF701FB30A040F2574105
:1053900005F0E2F91C210E204FF4207203F0BAFC54
:1053A000050048D068891C2807D232A0FEF7EEFA23
:1053B00026A040F2624105F0CFF96C68119801F027
:1053C00079F8E08096F82C00062807D03648FEF7DA
:1053D000DDFA1EA040F2694105F0BEF9D8F80010D0
:1053E000A160B8F80400A081DAF80010C4F8121027
:1053F0002946BAF80400E082DBF80000C4F80E0089
:10540000D9F80000A0614FF48070208008206080EF
:10541000062020710420607140F60600DDE90223B9
:105420000090304600F09CF9284603F0EFFF384624
:1054300005B0BDE8F08F4FF0FF30F9E76E65746995
:105440006620213D204E554C4C0000002E2E5C2E37
:105450002E5C557365725C6C7769705C7372635C0B
:10546000636F72655C697076345C657468617270D4
:105470002E630000636865636B2074686174206646
:105480006972737420706275662063616E20686F44
:105490006C642073747275637420657468617270D3
:1054A0005F68647200000000DC200108014A00F01F
:1054B00003B80000301E01087FB5064D0124031D0E
:1054C000CDE90214CDE9003522331946FFF74EFF2E
:1054D00004B070BD361E010870B5154D002404EBF4
:1054E000440005EBC002117DF1B1508A401C80B22E
:1054F0005082B0F5967F0AD2012906D003290AD03E
:1055000004290AD001290BD00EE0052808D3204633
:10551000FFF79EFC08E0042000E00220107503E085
:105520009068111DFFF7C2FF641C0A2CD7DB70BD09
:10553000F0240124F8B5044690F82C001F461546C7
:1055400006280E4607D021A0FEF720FA28A040F238
:10555000A91105F001F99EB1306888B1214600F02B
:105560009CFB68B93078C0F303100E2808D022469F
:1055700039463046FFF754FB002804DA40B2F8BD44
:105580006FF00F00F8BD244A00EB4001022302EB4C
:10559000C100037584602B68C360AB88038200235D
:1055A000438252F8316076B142F831304FF40060F6
:1055B0002B4604F1260231460090204600F0D0F838
:1055C000304603F023FF0020F8BD00006E657469CB
:1055D000662D3E6877616464725F6C656E203D3D48
:1055E000204554485F4857414444525F4C454E0063
:1055F0002E2E5C2E2E5C557365725C6C7769705C28
:105600007372635C636F72655C697076345C657439
:10561000686172702E630000F02401242DE9F041CE
:10562000044640890E270D460E283CD9E07B18B968
:1056300095F83000401CE073606801788689CA07DD
:1056400014D0012905D01D490622FAF726FF48B1DA
:105650000CE0417851B980785E2807D1607B40F03A
:10566000100002E0607B40F008006073082E03D059
:10567000B6F5C16F17D10DE095F82D00000712D5D2
:105680003946204604F046F868B92946204600F01D
:105690001BFB10E095F82D00000704D53946204685
:1056A00004F038F818B1204603F0B0FE03E02946B4
:1056B0002046FFF7E9FB0020BDE8F081301E01081D
:1056C000002607469AB035464FF4804834464FF4DA
:1056D00000592248FDF7B6FA97F82D1049070CD566
:1056E00001282BDC1D489C38FCF74BFA384603F0A8
:1056F000C7F9384603F006FA20E001281EDD02282B
:1057000020D0032820D0042822D0052822D0AEB1F2
:10571000124869469C38FBF754FD10486946CDE9AC
:1057200005549C38FCF78AF90C489C38FCF7CEF9F4
:10573000384603F06DFA384603F024FA64200BF083
:1057400065FAC6E74C4600E0002445460126DFE73F
:105750004C4600E000240025F8E700008C260124D8
:105760002DE9F0411F4690460E460446069800F08B
:10577000A1FE0E210546304603F084FA18B16FF001
:105780000100BDE8F0817068858139680160B988E1
:105790008180D8F80020C0F80620B8F804104181B4
:1057A00094F82C00062807D006A0FEF7EFF812A008
:1057B0004FF4997104F0D0FFA26931462046BDE84C
:1057C000F04110476E657469662D3E6877616464C8
:1057D000725F6C656E206D75737420626520362073
:1057E000666F722065746865726E65745F6F75743C
:1057F00070757421000000002E2E5C2E2E5C5573F7
:1058000065725C6C7769705C7372635C6E657469F9
:10581000665C65746865726E65742E6300000000D6
:1058200010B5040007D10BA0FEF7B0F80DA04FF49F
:10583000DB7104F091FF732084F82E007A2084F845
:105840002F00124860611248A061204600F0C8FC99
:10585000002010BD6E6574696620213D204E554CB8
:105860004C0000002E2E5C2E2E5C557365725C6C15
:105870007769705C7372635C706F72745C6E657470
:1058800069665F706F72742E630000005D4F0008E0
:10589000156400080F4E0546642130680BF00CFEBD
:1058A0000128F9D10C4805F0D0F8284600F05EFD3B
:1058B000040006D02A692946904710B1204603F01B
:1058C000A5FD0648FBF722FC034805F0D1F8002CA3
:1058D000E8D1E1E774010024C4000024F02501248C
:1058E00013B5012269460020FDF750FB00981CBD4E
:1058F00030B505280D4685B0044607D90F4840F25B
:105900002B2203685BB10FA00D499847144800EBA8
:105910008400406B284000D0012005B030BD08480D
:1059200008A1CDE903020FA30092CDE9013116A22F
:10593000034600201DA1FEF7BDFDFEE790010024F7
:10594000BE1E01086C6576656C203C3D20454C4FC1
:10595000475F4C564C5F564552424F53450000003E
:10596000B02B01242825732920686173206173738B
:10597000657274206661696C6564206174202573AA
:105980003A256C642E0000002E2E5C2E2E5C557382
:1059900065725C656173796C6F676765725C737261
:1059A000635C656C6F672E6300000000656C6F6759
:1059B000000000000A46032100F0DEB82DE9FE4F8A
:1059C000474A04468A46D2F8088098F80000000743
:1059D000860E142E7ED3608904287BD360680178FC
:1059E000002977D0082975D1506902F11407C0F356
:1059F00003110E296ED01168914600F04EF900286F
:105A000068D12089082865D3204600F021F90028B4
:105A100060D106F10E0120460D4603F033F900284F
:105A200030D02089811989B2884253D80E204FF492
:105A3000207203F06FF905004CD0698906F1080067
:105A4000814216D3686832464146FAF7DBFC31469C
:105A5000284603F05FFE38B122A0FDF797FFB6217C
:105A60002EA004F079FE04E02146284603F082FBD4
:105A700018B1284603F0CAFC2CE0204603F0C6FC0F
:105A80002C460CE02946204603F044FE38B12DA0F8
:105A9000FDF77CFFC72121A004F05EFE1AE06568D7
:105AA0003146204603F0EEF8A0B96068FF2239685D
:105AB000FF23C160D9F810100161002129706980AD
:105AC00002720122418120468DE806040A463946C9
:105AD00000F0C4F92046BDE8FE4F03F097BC00007B
